{
  "_format": "hh-sol-artifact-1",
  "contractName": "CustomRouter",
  "sourceName": "contracts/CustomRouter.sol",
  "abi": [
    {
      "inputs": [
        {
          "internalType": "address",
          "name": "receiver",
          "type": "address"
        }
      ],
      "stateMutability": "nonpayable",
      "type": "constructor"
    },
    {
      "anonymous": false,
      "inputs": [
        {
          "indexed": false,
          "internalType": "bytes32",
          "name": "orderKey",
          "type": "bytes32"
        },
        {
          "indexed": false,
          "internalType": "address",
          "name": "receiver",
          "type": "address"
        },
        {
          "indexed": false,
          "internalType": "address",
          "name": "fromToken",
          "type": "address"
        },
        {
          "indexed": false,
          "internalType": "uint256",
          "name": "fromTokenAmount",
          "type": "uint256"
        },
        {
          "indexed": false,
          "internalType": "address",
          "name": "toToken",
          "type": "address"
        },
        {
          "indexed": false,
          "internalType": "uint256",
          "name": "toTokenAmount",
          "type": "uint256"
        }
      ],
      "name": "CancelOrder",
      "type": "event"
    },
    {
      "anonymous": false,
      "inputs": [
        {
          "indexed": false,
          "internalType": "bytes32",
          "name": "orderKey",
          "type": "bytes32"
        },
        {
          "indexed": false,
          "internalType": "address",
          "name": "receiver",
          "type": "address"
        },
        {
          "indexed": false,
          "internalType": "address",
          "name": "fromToken",
          "type": "address"
        },
        {
          "indexed": false,
          "internalType": "address",
          "name": "toToken",
          "type": "address"
        },
        {
          "indexed": false,
          "internalType": "bytes[]",
          "name": "rawOrderKey",
          "type": "bytes[]"
        }
      ],
      "name": "CreateOrder",
      "type": "event"
    },
    {
      "anonymous": false,
      "inputs": [
        {
          "indexed": false,
          "internalType": "address",
          "name": "exchangeRouter",
          "type": "address"
        }
      ],
      "name": "ExchangeRouterUpdated",
      "type": "event"
    },
    {
      "anonymous": false,
      "inputs": [
        {
          "indexed": false,
          "internalType": "address",
          "name": "feeReceiver",
          "type": "address"
        }
      ],
      "name": "FeeReceiverUpdated",
      "type": "event"
    },
    {
      "anonymous": false,
      "inputs": [
        {
          "indexed": false,
          "internalType": "address",
          "name": "token",
          "type": "address"
        },
        {
          "indexed": false,
          "internalType": "uint256",
          "name": "amount",
          "type": "uint256"
        }
      ],
      "name": "FeeTokenWithdrawn",
      "type": "event"
    },
    {
      "anonymous": false,
      "inputs": [
        {
          "indexed": false,
          "internalType": "uint256",
          "name": "fee",
          "type": "uint256"
        }
      ],
      "name": "FeeUpdated",
      "type": "event"
    },
    {
      "anonymous": false,
      "inputs": [
        {
          "indexed": true,
          "internalType": "address",
          "name": "previousOwner",
          "type": "address"
        },
        {
          "indexed": true,
          "internalType": "address",
          "name": "newOwner",
          "type": "address"
        }
      ],
      "name": "OwnershipTransferred",
      "type": "event"
    },
    {
      "anonymous": false,
      "inputs": [
        {
          "indexed": false,
          "internalType": "address",
          "name": "syntheticsRouter",
          "type": "address"
        }
      ],
      "name": "SyntheticsRouterUpdated",
      "type": "event"
    },
    {
      "stateMutability": "payable",
      "type": "fallback"
    },
    {
      "inputs": [],
      "name": "FEE_DOMINATOR",
      "outputs": [
        {
          "internalType": "uint256",
          "name": "",
          "type": "uint256"
        }
      ],
      "stateMutability": "view",
      "type": "function"
    },
    {
      "inputs": [
        {
          "internalType": "bytes32",
          "name": "orderKey",
          "type": "bytes32"
        }
      ],
      "name": "cancelOrder",
      "outputs": [],
      "stateMutability": "nonpayable",
      "type": "function"
    },
    {
      "inputs": [
        {
          "internalType": "bytes[]",
          "name": "data",
          "type": "bytes[]"
        },
        {
          "internalType": "uint256",
          "name": "amount",
          "type": "uint256"
        },
        {
          "internalType": "uint256",
          "name": "singularFee",
          "type": "uint256"
        },
        {
          "internalType": "address",
          "name": "fromToken",
          "type": "address"
        },
        {
          "internalType": "address",
          "name": "toToken",
          "type": "address"
        }
      ],
      "name": "createOrder",
      "outputs": [
        {
          "internalType": "bytes32",
          "name": "orderKey",
          "type": "bytes32"
        }
      ],
      "stateMutability": "payable",
      "type": "function"
    },
    {
      "inputs": [],
      "name": "exchangeRouter",
      "outputs": [
        {
          "internalType": "contract ExchangeRouter",
          "name": "",
          "type": "address"
        }
      ],
      "stateMutability": "view",
      "type": "function"
    },
    {
      "inputs": [],
      "name": "fee",
      "outputs": [
        {
          "internalType": "uint256",
          "name": "",
          "type": "uint256"
        }
      ],
      "stateMutability": "view",
      "type": "function"
    },
    {
      "inputs": [],
      "name": "feeReceiver",
      "outputs": [
        {
          "internalType": "address",
          "name": "",
          "type": "address"
        }
      ],
      "stateMutability": "view",
      "type": "function"
    },
    {
      "inputs": [
        {
          "internalType": "bytes32",
          "name": "",
          "type": "bytes32"
        }
      ],
      "name": "orderList",
      "outputs": [
        {
          "internalType": "address",
          "name": "receiver",
          "type": "address"
        },
        {
          "internalType": "address",
          "name": "fromToken",
          "type": "address"
        },
        {
          "internalType": "address",
          "name": "toToken",
          "type": "address"
        },
        {
          "internalType": "bool",
          "name": "canceled",
          "type": "bool"
        }
      ],
      "stateMutability": "view",
      "type": "function"
    },
    {
      "inputs": [],
      "name": "owner",
      "outputs": [
        {
          "internalType": "address",
          "name": "",
          "type": "address"
        }
      ],
      "stateMutability": "view",
      "type": "function"
    },
    {
      "inputs": [],
      "name": "renounceOwnership",
      "outputs": [],
      "stateMutability": "nonpayable",
      "type": "function"
    },
    {
      "inputs": [
        {
          "internalType": "address",
          "name": "router",
          "type": "address"
        }
      ],
      "name": "setExchangeRouter",
      "outputs": [],
      "stateMutability": "nonpayable",
      "type": "function"
    },
    {
      "inputs": [
        {
          "internalType": "uint256",
          "name": "feePercentage",
          "type": "uint256"
        }
      ],
      "name": "setFee",
      "outputs": [],
      "stateMutability": "nonpayable",
      "type": "function"
    },
    {
      "inputs": [
        {
          "internalType": "address",
          "name": "receiver",
          "type": "address"
        }
      ],
      "name": "setFeeReceiver",
      "outputs": [],
      "stateMutability": "nonpayable",
      "type": "function"
    },
    {
      "inputs": [
        {
          "internalType": "address",
          "name": "router",
          "type": "address"
        }
      ],
      "name": "setSyntheticsRouter",
      "outputs": [],
      "stateMutability": "nonpayable",
      "type": "function"
    },
    {
      "inputs": [],
      "name": "syntheticsRouter",
      "outputs": [
        {
          "internalType": "address",
          "name": "",
          "type": "address"
        }
      ],
      "stateMutability": "view",
      "type": "function"
    },
    {
      "inputs": [
        {
          "internalType": "address",
          "name": "newOwner",
          "type": "address"
        }
      ],
      "name": "transferOwnership",
      "outputs": [],
      "stateMutability": "nonpayable",
      "type": "function"
    },
    {
      "inputs": [
        {
          "internalType": "address",
          "name": "token",
          "type": "address"
        }
      ],
      "name": "withdraw",
      "outputs": [],
      "stateMutability": "nonpayable",
      "type": "function"
    },
    {
      "stateMutability": "payable",
      "type": "receive"
    }
  ],
  "bytecode": "0x608060405260326004553480156200001657600080fd5b5060405162001d9e38038062001d9e83398101604081905262000039916200014c565b6200004433620000fc565b600180556001600160a01b038116620000955760405162461bcd60e51b815260206004820152600f60248201526e496e76616c6964206164647265737360881b604482015260640160405180910390fd5b600280546001600160a01b031990811673900173a66dbd345006c51fa35fa3ab760fcd843b17909155600380548216737452c558d45f8afc8c83dae62c3f8a5be19c71f6179055600580546001600160a01b0393909316929091169190911790556200017e565b600080546001600160a01b038381166001600160a01b0319831681178455604051919092169283917f8be0079c531659141344cd1fd0a4f28419497f9722a3daafe3b4186f6b6457e09190a35050565b6000602082840312156200015f57600080fd5b81516001600160a01b03811681146200017757600080fd5b9392505050565b611c10806200018e6000396000f3fe6080604052600436106100eb5760003560e01c80638da5cb5b11610084578063ddca3f4311610056578063ddca3f43146102e5578063efdcd974146102fb578063f2fde38b1461031b578063fa41a1031461033b57005b80638da5cb5b146102705780639ff076fa1461028e578063b3f00674146102af578063cb121b6b146102cf57005b80636af6400d116100bd5780636af6400d14610191578063715018a61461021b5780637489ec2314610230578063838b7ccb1461025057005b80631cb85818146100f4578063283519af1461013157806351cff8d91461015157806369fe0e2d1461017157005b366100f257005b005b34801561010057600080fd5b50600254610114906001600160a01b031681565b6040516001600160a01b0390911681526020015b60405180910390f35b34801561013d57600080fd5b506100f261014c366004611635565b61035b565b34801561015d57600080fd5b506100f261016c366004611635565b6103e7565b34801561017d57600080fd5b506100f261018c366004611650565b610643565b34801561019d57600080fd5b506101e66101ac366004611650565b6006602052600090815260409020805460018201546002909201546001600160a01b0391821692821691811690600160a01b900460ff1684565b60405161012894939291906001600160a01b039485168152928416602084015292166040820152901515606082015260800190565b34801561022757600080fd5b506100f26106c0565b34801561023c57600080fd5b506100f261024b366004611650565b6106d4565b34801561025c57600080fd5b506100f261026b366004611635565b610db4565b34801561027c57600080fd5b506000546001600160a01b0316610114565b6102a161029c366004611669565b610e30565b604051908152602001610128565b3480156102bb57600080fd5b50600554610114906001600160a01b031681565b3480156102db57600080fd5b506102a161271081565b3480156102f157600080fd5b506102a160045481565b34801561030757600080fd5b506100f2610316366004611635565b61117f565b34801561032757600080fd5b506100f2610336366004611635565b6111fb565b34801561034757600080fd5b50600354610114906001600160a01b031681565b610363611274565b6001600160a01b0381166103925760405162461bcd60e51b81526004016103899061170e565b60405180910390fd5b600380546001600160a01b0319166001600160a01b0383169081179091556040519081527fb6f5ba79afe5be70f321dfc3bc2a3287e7269cf555a21885fe510519a6a4990a906020015b60405180910390a150565b6002600154036104095760405162461bcd60e51b815260040161038990611737565b60026001556001600160a01b0381166105375747806104545760405162461bcd60e51b81526020600482015260076024820152664e6f204665657360c81b6044820152606401610389565b6005546040516000916001600160a01b03169083908381818185875af1925050503d80600081146104a1576040519150601f19603f3d011682016040523d82523d6000602084013e6104a6565b606091505b50509050806104ee5760405162461bcd60e51b815260206004820152601460248201527315da5d1a191c985dc81199594e8811985a5b195960621b6044820152606401610389565b604080516001600160a01b0385168152602081018490527f8f1a6d9f2910510bc19a3e533d976a8f3a858607f88468a5065f615f3669ffd1910160405180910390a1505061063c565b6040516370a0823160e01b81523060048201526000906001600160a01b038316906370a0823190602401602060405180830381865afa15801561057e573d6000803e3d6000fd5b505050506040513d601f19601f820116820180604052508101906105a2919061176e565b9050600081116105de5760405162461bcd60e51b81526020600482015260076024820152664e6f204665657360c81b6044820152606401610389565b6005546105f8906001600160a01b038481169116836112ce565b604080516001600160a01b0384168152602081018390527f8f1a6d9f2910510bc19a3e533d976a8f3a858607f88468a5065f615f3669ffd1910160405180910390a1505b5060018055565b61064b611274565b61271081111561068b5760405162461bcd60e51b815260206004820152600b60248201526a496e76616c69642066656560a81b6044820152606401610389565b60048190556040518181527f8c4d35e54a3f2ef1134138fd8ea3daee6a3c89e10d2665996babdf70261e2c76906020016103dc565b6106c8611274565b6106d26000611336565b565b6002600154036106f65760405162461bcd60e51b815260040161038990611737565b60026001818155600083815260066020908152604091829020825160808101845281546001600160a01b039081168083529583015481169382019390935294015490811691840191909152600160a01b900460ff161515606083015233146107955760405162461bcd60e51b81526020600482015260126024820152712ab730baba3437b934bd32b21027b93232b960711b6044820152606401610389565b6060810151156107d85760405162461bcd60e51b815260206004820152600e60248201526d21b0b731b2b632b21037b93232b960911b6044820152606401610389565b604080516001808252818301909252600091816020015b60608152602001906001900390816107ef579050509050637489ec238360405160240161081e91815260200190565b6040516020818303038152906040529060e01b6020820180516001600160e01b0383818316178352505050508160008151811061085d5761085d61179d565b602002602001018190525060008060006001600160a01b031684602001516001600160a01b03160361089157479150610902565b60208401516040516370a0823160e01b81523060048201526001600160a01b03909116906370a0823190602401602060405180830381865afa1580156108db573d6000803e3d6000fd5b505050506040513d601f19601f820116820180604052508101906108ff919061176e565b91505b60408401516001600160a01b031661091b57504761098c565b60408085015190516370a0823160e01b81523060048201526001600160a01b03909116906370a0823190602401602060405180830381865afa158015610965573d6000803e3d6000fd5b505050506040513d601f19601f82011682018060405250810190610989919061176e565b90505b600254604051631592ca1b60e31b81526001600160a01b039091169063ac9650d8906109bc908690600401611860565b6000604051808303816000875af11580156109db573d6000803e3d6000fd5b505050506040513d6000823e601f3d908101601f19168201604052610a0391908101906118a4565b5060208401516001600160a01b0316610a2757610a2082476119d0565b9150610aa2565b60208401516040516370a0823160e01b815230600482015283916001600160a01b0316906370a0823190602401602060405180830381865afa158015610a71573d6000803e3d6000fd5b505050506040513d601f19601f82011682018060405250810190610a95919061176e565b610a9f91906119d0565b91505b60408401516001600160a01b0316610ac557610abe81476119d0565b9050610b40565b60408085015190516370a0823160e01b815230600482015282916001600160a01b0316906370a0823190602401602060405180830381865afa158015610b0f573d6000803e3d6000fd5b505050506040513d601f19601f82011682018060405250810190610b33919061176e565b610b3d91906119d0565b90505b6000821180610b4f5750600081115b610b8c5760405162461bcd60e51b815260206004820152600e60248201526d125b9d985b1a590818d85b98d95b60921b6044820152606401610389565b8115610c5557612710600454612710610ba591906119d0565b610baf90846119e7565b610bb99190611a06565b60208501519092506001600160a01b0316610c3c57604051600090339084908381818185875af1925050503d8060008114610c10576040519150601f19603f3d011682016040523d82523d6000602084013e610c15565b606091505b5050905080610c365760405162461bcd60e51b815260040161038990611a28565b50610c55565b6020840151610c55906001600160a01b031633846112ce565b8015610d1e57612710600454612710610c6e91906119d0565b610c7890836119e7565b610c829190611a06565b60408501519091506001600160a01b0316610d0557604051600090339083908381818185875af1925050503d8060008114610cd9576040519150601f19603f3d011682016040523d82523d6000602084013e610cde565b606091505b5050905080610cff5760405162461bcd60e51b815260040161038990611a28565b50610d1e565b6040840151610d1e906001600160a01b031633836112ce565b600085815260066020908152604091829020600201805460ff60a01b1916600160a01b1790558581015186830151835189815233938101939093526001600160a01b03918216838501526060830186905216608082015260a0810183905290517fdd598ce1d49e320ac53b056d63549e7f2fde79e657304c2efaaacfa3e8628bf09160c0908290030190a1505060018055505050565b610dbc611274565b6001600160a01b038116610de25760405162461bcd60e51b81526004016103899061170e565b600280546001600160a01b0319166001600160a01b0383169081179091556040519081527fb7c805b65952f3d706be4b8dada8a333c930c006bda2450216983a7229256631906020016103dc565b6000600260015403610e545760405162461bcd60e51b815260040161038990611737565b600260015560045460009061271090610e6d90886119e7565b610e779190611a06565b905084811115610eb75760405162461bcd60e51b815260206004820152600b60248201526a496e76616c69642066656560a81b6044820152606401610389565b6001600160a01b03841615610f6c57610edb6001600160a01b038516333089611386565b6003546001600160a01b038086169163095ea7b39116610efb888a6119d0565b6040516001600160e01b031960e085901b1681526001600160a01b03909216600483015260248201526044016020604051808303816000875af1158015610f46573d6000803e3d6000fd5b505050506040513d601f19601f82011682018060405250810190610f6a9190611a71565b505b60006001600160a01b03851615610f835734610f8d565b610f8d86346119d0565b600254604051631592ca1b60e31b81529192506000916001600160a01b039091169063ac9650d8908490610fc7908e908e90600401611abc565b60006040518083038185885af1158015610fe5573d6000803e3d6000fd5b50505050506040513d6000823e601f3d908101601f1916820160405261100e91908101906118a4565b9050806001825161101f91906119d0565b8151811061102f5761102f61179d565b602002602001015161104090611b4a565b6000818152600660205260409020549094506001600160a01b03161561109b5760405162461bcd60e51b815260206004820152601060248201526f223ab83634b1b0ba32b21027b93232b960811b6044820152606401610389565b60408051608081018252338082526001600160a01b0389811660208085019182528a83168587019081526000606087018181528c82526006909352879020955186549085166001600160a01b03199182161787559251600187018054918616919094161790925590516002909401805491511515600160a01b026001600160a81b031990921694909216939093179290921790915590517fe769e49544be2cdaa502c82256b1fcfa5618ab0630d7edea8e0100d3d082f26191611166918791908a908a908790611b71565b60405180910390a1505060018055509695505050505050565b611187611274565b6001600160a01b0381166111ad5760405162461bcd60e51b81526004016103899061170e565b600580546001600160a01b0319166001600160a01b0383169081179091556040519081527f27aae5db36d94179909d019ae0b1ac7c16d96d953148f63c0f6a0a9c8ead79ee906020016103dc565b611203611274565b6001600160a01b0381166112685760405162461bcd60e51b815260206004820152602660248201527f4f776e61626c653a206e6577206f776e657220697320746865207a65726f206160448201526564647265737360d01b6064820152608401610389565b61127181611336565b50565b6000546001600160a01b031633146106d25760405162461bcd60e51b815260206004820181905260248201527f4f776e61626c653a2063616c6c6572206973206e6f7420746865206f776e65726044820152606401610389565b6040516001600160a01b03831660248201526044810182905261133190849063a9059cbb60e01b906064015b60408051601f198184030181529190526020810180516001600160e01b03166001600160e01b0319909316929092179091526113c4565b505050565b600080546001600160a01b038381166001600160a01b0319831681178455604051919092169283917f8be0079c531659141344cd1fd0a4f28419497f9722a3daafe3b4186f6b6457e09190a35050565b6040516001600160a01b03808516602483015283166044820152606481018290526113be9085906323b872dd60e01b906084016112fa565b50505050565b6000611419826040518060400160405280602081526020017f5361666545524332303a206c6f772d6c6576656c2063616c6c206661696c6564815250856001600160a01b03166114969092919063ffffffff16565b80519091501561133157808060200190518101906114379190611a71565b6113315760405162461bcd60e51b815260206004820152602a60248201527f5361666545524332303a204552433230206f7065726174696f6e20646964206e6044820152691bdd081cdd58d8d9595960b21b6064820152608401610389565b60606114a584846000856114af565b90505b9392505050565b6060824710156115105760405162461bcd60e51b815260206004820152602660248201527f416464726573733a20696e73756666696369656e742062616c616e636520666f6044820152651c8818d85b1b60d21b6064820152608401610389565b6001600160a01b0385163b6115675760405162461bcd60e51b815260206004820152601d60248201527f416464726573733a2063616c6c20746f206e6f6e2d636f6e74726163740000006044820152606401610389565b600080866001600160a01b031685876040516115839190611bab565b60006040518083038185875af1925050503d80600081146115c0576040519150601f19603f3d011682016040523d82523d6000602084013e6115c5565b606091505b50915091506115d58282866115e0565b979650505050505050565b606083156115ef5750816114a8565b8251156115ff5782518084602001fd5b8160405162461bcd60e51b81526004016103899190611bc7565b80356001600160a01b038116811461163057600080fd5b919050565b60006020828403121561164757600080fd5b6114a882611619565b60006020828403121561166257600080fd5b5035919050565b60008060008060008060a0878903121561168257600080fd5b863567ffffffffffffffff8082111561169a57600080fd5b818901915089601f8301126116ae57600080fd5b8135818111156116bd57600080fd5b8a60208260051b85010111156116d257600080fd5b602092830198509650508701359350604087013592506116f460608801611619565b915061170260808801611619565b90509295509295509295565b6020808252600f908201526e496e76616c6964206164647265737360881b604082015260600190565b6020808252601f908201527f5265656e7472616e637947756172643a207265656e7472616e742063616c6c00604082015260600190565b60006020828403121561178057600080fd5b5051919050565b634e487b7160e01b600052604160045260246000fd5b634e487b7160e01b600052603260045260246000fd5b60005b838110156117ce5781810151838201526020016117b6565b838111156113be5750506000910152565b600081518084526117f78160208601602086016117b3565b601f01601f19169290920160200192915050565b600081518084526020808501808196508360051b8101915082860160005b858110156118535782840389526118418483516117df565b98850198935090840190600101611829565b5091979650505050505050565b6020815260006114a8602083018461180b565b604051601f8201601f1916810167ffffffffffffffff8111828210171561189c5761189c611787565b604052919050565b600060208083850312156118b757600080fd5b825167ffffffffffffffff808211156118cf57600080fd5b8185019150601f86818401126118e457600080fd5b8251828111156118f6576118f6611787565b8060051b611905868201611873565b918252848101860191868101908a84111561191f57600080fd5b87870192505b838310156119ac5782518681111561193d5760008081fd5b8701603f81018c1361194f5760008081fd5b8881015160408882111561196557611965611787565b611976828901601f19168c01611873565b8281528e8284860101111561198b5760008081fd5b61199a838d83018487016117b3565b85525050509187019190870190611925565b9a9950505050505050505050565b634e487b7160e01b600052601160045260246000fd5b6000828210156119e2576119e26119ba565b500390565b6000816000190483118215151615611a0157611a016119ba565b500290565b600082611a2357634e487b7160e01b600052601260045260246000fd5b500490565b60208082526029908201527f43616e63656c206f72646572206661696c65643a204e6f742061626c6520746f604082015268040e6cadcc8408aa8960bb1b606082015260800190565b600060208284031215611a8357600080fd5b815180151581146114a857600080fd5b81835281816020850137506000828201602090810191909152601f909101601f19169091010190565b60208082528181018390526000906040600585901b8401810190840186845b8781101561185357868403603f190183528135368a9003601e19018112611b0157600080fd5b8901803567ffffffffffffffff811115611b1a57600080fd5b8036038b1315611b2957600080fd5b611b368682898501611a93565b955050509184019190840190600101611adb565b80516020808301519190811015611b6b576000198160200360031b1b821691505b50919050565b8581526001600160a01b03858116602083015284811660408301528316606082015260a0608082018190526000906115d59083018461180b565b60008251611bbd8184602087016117b3565b9190910192915050565b6020815260006114a860208301846117df56fea26469706673582212205db69e9d8220387b544483d95e9c65c34f1c9fc2f96b33229852910320c353a264736f6c634300080d0033",
  "linkReferences": {},
  "deployedLinkReferences": {}
}