{
  "_format": "hh-sol-artifact-1",
  "contractName": "CustomRouter",
  "sourceName": "contracts/CustomRouter.sol",
  "abi": [
    {
      "inputs": [
        {
          "internalType": "address",
          "name": "receiver",
          "type": "address"
        }
      ],
      "stateMutability": "nonpayable",
      "type": "constructor"
    },
    {
      "anonymous": false,
      "inputs": [],
      "name": "Exchange",
      "type": "event"
    },
    {
      "anonymous": false,
      "inputs": [
        {
          "indexed": false,
          "internalType": "address",
          "name": "exchangeRouter",
          "type": "address"
        }
      ],
      "name": "ExchangeRouterUpdated",
      "type": "event"
    },
    {
      "anonymous": false,
      "inputs": [
        {
          "indexed": false,
          "internalType": "address",
          "name": "feeReceiver",
          "type": "address"
        }
      ],
      "name": "FeeReceiverUpdated",
      "type": "event"
    },
    {
      "anonymous": false,
      "inputs": [
        {
          "indexed": false,
          "internalType": "address",
          "name": "token",
          "type": "address"
        },
        {
          "indexed": false,
          "internalType": "uint256",
          "name": "amount",
          "type": "uint256"
        }
      ],
      "name": "FeeTokenWithdrawn",
      "type": "event"
    },
    {
      "anonymous": false,
      "inputs": [
        {
          "indexed": false,
          "internalType": "uint256",
          "name": "fee",
          "type": "uint256"
        }
      ],
      "name": "FeeUpdated",
      "type": "event"
    },
    {
      "anonymous": false,
      "inputs": [
        {
          "indexed": true,
          "internalType": "address",
          "name": "previousOwner",
          "type": "address"
        },
        {
          "indexed": true,
          "internalType": "address",
          "name": "newOwner",
          "type": "address"
        }
      ],
      "name": "OwnershipTransferred",
      "type": "event"
    },
    {
      "anonymous": false,
      "inputs": [
        {
          "indexed": false,
          "internalType": "address",
          "name": "syntheticsRouter",
          "type": "address"
        }
      ],
      "name": "SyntheticsRouterUpdated",
      "type": "event"
    },
    {
      "stateMutability": "payable",
      "type": "fallback"
    },
    {
      "inputs": [],
      "name": "FEE_DOMINATOR",
      "outputs": [
        {
          "internalType": "uint256",
          "name": "",
          "type": "uint256"
        }
      ],
      "stateMutability": "view",
      "type": "function"
    },
    {
      "inputs": [
        {
          "internalType": "bytes[]",
          "name": "data",
          "type": "bytes[]"
        },
        {
          "internalType": "uint256",
          "name": "amount",
          "type": "uint256"
        },
        {
          "internalType": "uint256",
          "name": "singularFee",
          "type": "uint256"
        },
        {
          "internalType": "address",
          "name": "fromToken",
          "type": "address"
        }
      ],
      "name": "addCollateral",
      "outputs": [
        {
          "internalType": "bytes[]",
          "name": "results",
          "type": "bytes[]"
        }
      ],
      "stateMutability": "payable",
      "type": "function"
    },
    {
      "inputs": [],
      "name": "exchangeRouter",
      "outputs": [
        {
          "internalType": "contract ExchangeRouter",
          "name": "",
          "type": "address"
        }
      ],
      "stateMutability": "view",
      "type": "function"
    },
    {
      "inputs": [],
      "name": "fee",
      "outputs": [
        {
          "internalType": "uint256",
          "name": "",
          "type": "uint256"
        }
      ],
      "stateMutability": "view",
      "type": "function"
    },
    {
      "inputs": [],
      "name": "feeReceiver",
      "outputs": [
        {
          "internalType": "address",
          "name": "",
          "type": "address"
        }
      ],
      "stateMutability": "view",
      "type": "function"
    },
    {
      "inputs": [],
      "name": "owner",
      "outputs": [
        {
          "internalType": "address",
          "name": "",
          "type": "address"
        }
      ],
      "stateMutability": "view",
      "type": "function"
    },
    {
      "inputs": [],
      "name": "renounceOwnership",
      "outputs": [],
      "stateMutability": "nonpayable",
      "type": "function"
    },
    {
      "inputs": [
        {
          "internalType": "address",
          "name": "router",
          "type": "address"
        }
      ],
      "name": "setExchangeRouter",
      "outputs": [],
      "stateMutability": "nonpayable",
      "type": "function"
    },
    {
      "inputs": [
        {
          "internalType": "uint256",
          "name": "feePercentage",
          "type": "uint256"
        }
      ],
      "name": "setFee",
      "outputs": [],
      "stateMutability": "nonpayable",
      "type": "function"
    },
    {
      "inputs": [
        {
          "internalType": "address",
          "name": "receiver",
          "type": "address"
        }
      ],
      "name": "setFeeReceiver",
      "outputs": [],
      "stateMutability": "nonpayable",
      "type": "function"
    },
    {
      "inputs": [
        {
          "internalType": "address",
          "name": "router",
          "type": "address"
        }
      ],
      "name": "setSyntheticsRouter",
      "outputs": [],
      "stateMutability": "nonpayable",
      "type": "function"
    },
    {
      "inputs": [],
      "name": "syntheticsRouter",
      "outputs": [
        {
          "internalType": "address",
          "name": "",
          "type": "address"
        }
      ],
      "stateMutability": "view",
      "type": "function"
    },
    {
      "inputs": [
        {
          "internalType": "address",
          "name": "newOwner",
          "type": "address"
        }
      ],
      "name": "transferOwnership",
      "outputs": [],
      "stateMutability": "nonpayable",
      "type": "function"
    },
    {
      "inputs": [
        {
          "internalType": "address",
          "name": "token",
          "type": "address"
        }
      ],
      "name": "withdraw",
      "outputs": [],
      "stateMutability": "nonpayable",
      "type": "function"
    },
    {
      "stateMutability": "payable",
      "type": "receive"
    }
  ],
  "bytecode": "0x6080604052603260045534801561001557600080fd5b506040516113fa3803806113fa83398101604081905261003491610143565b61003d336100f3565b600180556001600160a01b03811661008d5760405162461bcd60e51b815260206004820152600f60248201526e496e76616c6964206164647265737360881b604482015260640160405180910390fd5b600280546001600160a01b031990811673900173a66dbd345006c51fa35fa3ab760fcd843b17909155600380548216737452c558d45f8afc8c83dae62c3f8a5be19c71f6179055600580546001600160a01b039390931692909116919091179055610173565b600080546001600160a01b038381166001600160a01b0319831681178455604051919092169283917f8be0079c531659141344cd1fd0a4f28419497f9722a3daafe3b4186f6b6457e09190a35050565b60006020828403121561015557600080fd5b81516001600160a01b038116811461016c57600080fd5b9392505050565b611278806101826000396000f3fe6080604052600436106100d55760003560e01c80638da5cb5b11610079578063ddca3f4311610056578063ddca3f4314610232578063efdcd97414610248578063f2fde38b14610268578063fa41a1031461028857005b80638da5cb5b146101d0578063b3f00674146101ee578063cb121b6b1461020e57005b806351cff8d9116100b257806351cff8d91461015b57806369fe0e2d1461017b578063715018a61461019b578063838b7ccb146101b057005b80631cb85818146100de578063283519af1461011b578063287713fe1461013b57005b366100dc57005b005b3480156100ea57600080fd5b506002546100fe906001600160a01b031681565b6040516001600160a01b0390911681526020015b60405180910390f35b34801561012757600080fd5b506100dc610136366004610d9c565b6102a8565b61014e610149366004610db7565b610334565b6040516101129190610ea5565b34801561016757600080fd5b506100dc610176366004610d9c565b61054d565b34801561018757600080fd5b506100dc610196366004610f07565b6107d9565b3480156101a757600080fd5b506100dc610856565b3480156101bc57600080fd5b506100dc6101cb366004610d9c565b61086a565b3480156101dc57600080fd5b506000546001600160a01b03166100fe565b3480156101fa57600080fd5b506005546100fe906001600160a01b031681565b34801561021a57600080fd5b5061022461271081565b604051908152602001610112565b34801561023e57600080fd5b5061022460045481565b34801561025457600080fd5b506100dc610263366004610d9c565b6108e6565b34801561027457600080fd5b506100dc610283366004610d9c565b610962565b34801561029457600080fd5b506003546100fe906001600160a01b031681565b6102b06109db565b6001600160a01b0381166102df5760405162461bcd60e51b81526004016102d690610f20565b60405180910390fd5b600380546001600160a01b0319166001600160a01b0383169081179091556040519081527fb6f5ba79afe5be70f321dfc3bc2a3287e7269cf555a21885fe510519a6a4990a906020015b60405180910390a150565b60606002600154036103885760405162461bcd60e51b815260206004820152601f60248201527f5265656e7472616e637947756172643a207265656e7472616e742063616c6c0060448201526064016102d6565b6002600155600454600090612710906103a19087610f5f565b6103ab9190610f7e565b9050838111156103eb5760405162461bcd60e51b815260206004820152600b60248201526a496e76616c69642066656560a81b60448201526064016102d6565b6001600160a01b038316156104a05761040f6001600160a01b038416333088610a35565b6003546001600160a01b038085169163095ea7b3911661042f8789610fa0565b6040516001600160e01b031960e085901b1681526001600160a01b03909216600483015260248201526044016020604051808303816000875af115801561047a573d6000803e3d6000fd5b505050506040513d601f19601f8201168201806040525081019061049e9190610fb7565b505b60006001600160a01b038416156104b757346104c1565b6104c18534610fa0565b600254604051631592ca1b60e31b81529192506001600160a01b03169063ac9650d89083906104f6908c908c90600401611002565b60006040518083038185885af1158015610514573d6000803e3d6000fd5b50505050506040513d6000823e601f3d908101601f1916820160405261053d91908101906110e4565b6001805598975050505050505050565b60026001540361059f5760405162461bcd60e51b815260206004820152601f60248201527f5265656e7472616e637947756172643a207265656e7472616e742063616c6c0060448201526064016102d6565b60026001556001600160a01b0381166106cd5747806105ea5760405162461bcd60e51b81526020600482015260076024820152664e6f204665657360c81b60448201526064016102d6565b6005546040516000916001600160a01b03169083908381818185875af1925050503d8060008114610637576040519150601f19603f3d011682016040523d82523d6000602084013e61063c565b606091505b50509050806106845760405162461bcd60e51b815260206004820152601460248201527315da5d1a191c985dc81199594e8811985a5b195960621b60448201526064016102d6565b604080516001600160a01b0385168152602081018490527f8f1a6d9f2910510bc19a3e533d976a8f3a858607f88468a5065f615f3669ffd1910160405180910390a150506107d2565b6040516370a0823160e01b81523060048201526000906001600160a01b038316906370a0823190602401602060405180830381865afa158015610714573d6000803e3d6000fd5b505050506040513d601f19601f8201168201806040525081019061073891906111fa565b9050600081116107745760405162461bcd60e51b81526020600482015260076024820152664e6f204665657360c81b60448201526064016102d6565b60055461078e906001600160a01b03848116911683610aa6565b604080516001600160a01b0384168152602081018390527f8f1a6d9f2910510bc19a3e533d976a8f3a858607f88468a5065f615f3669ffd1910160405180910390a1505b5060018055565b6107e16109db565b6127108111156108215760405162461bcd60e51b815260206004820152600b60248201526a496e76616c69642066656560a81b60448201526064016102d6565b60048190556040518181527f8c4d35e54a3f2ef1134138fd8ea3daee6a3c89e10d2665996babdf70261e2c7690602001610329565b61085e6109db565b6108686000610adb565b565b6108726109db565b6001600160a01b0381166108985760405162461bcd60e51b81526004016102d690610f20565b600280546001600160a01b0319166001600160a01b0383169081179091556040519081527fb7c805b65952f3d706be4b8dada8a333c930c006bda2450216983a722925663190602001610329565b6108ee6109db565b6001600160a01b0381166109145760405162461bcd60e51b81526004016102d690610f20565b600580546001600160a01b0319166001600160a01b0383169081179091556040519081527f27aae5db36d94179909d019ae0b1ac7c16d96d953148f63c0f6a0a9c8ead79ee90602001610329565b61096a6109db565b6001600160a01b0381166109cf5760405162461bcd60e51b815260206004820152602660248201527f4f776e61626c653a206e6577206f776e657220697320746865207a65726f206160448201526564647265737360d01b60648201526084016102d6565b6109d881610adb565b50565b6000546001600160a01b031633146108685760405162461bcd60e51b815260206004820181905260248201527f4f776e61626c653a2063616c6c6572206973206e6f7420746865206f776e657260448201526064016102d6565b6040516001600160a01b0380851660248301528316604482015260648101829052610aa09085906323b872dd60e01b906084015b60408051601f198184030181529190526020810180516001600160e01b03166001600160e01b031990931692909217909152610b2b565b50505050565b6040516001600160a01b038316602482015260448101829052610ad690849063a9059cbb60e01b90606401610a69565b505050565b600080546001600160a01b038381166001600160a01b0319831681178455604051919092169283917f8be0079c531659141344cd1fd0a4f28419497f9722a3daafe3b4186f6b6457e09190a35050565b6000610b80826040518060400160405280602081526020017f5361666545524332303a206c6f772d6c6576656c2063616c6c206661696c6564815250856001600160a01b0316610bfd9092919063ffffffff16565b805190915015610ad65780806020019051810190610b9e9190610fb7565b610ad65760405162461bcd60e51b815260206004820152602a60248201527f5361666545524332303a204552433230206f7065726174696f6e20646964206e6044820152691bdd081cdd58d8d9595960b21b60648201526084016102d6565b6060610c0c8484600085610c16565b90505b9392505050565b606082471015610c775760405162461bcd60e51b815260206004820152602660248201527f416464726573733a20696e73756666696369656e742062616c616e636520666f6044820152651c8818d85b1b60d21b60648201526084016102d6565b6001600160a01b0385163b610cce5760405162461bcd60e51b815260206004820152601d60248201527f416464726573733a2063616c6c20746f206e6f6e2d636f6e747261637400000060448201526064016102d6565b600080866001600160a01b03168587604051610cea9190611213565b60006040518083038185875af1925050503d8060008114610d27576040519150601f19603f3d011682016040523d82523d6000602084013e610d2c565b606091505b5091509150610d3c828286610d47565b979650505050505050565b60608315610d56575081610c0f565b825115610d665782518084602001fd5b8160405162461bcd60e51b81526004016102d6919061122f565b80356001600160a01b0381168114610d9757600080fd5b919050565b600060208284031215610dae57600080fd5b610c0f82610d80565b600080600080600060808688031215610dcf57600080fd5b853567ffffffffffffffff80821115610de757600080fd5b818801915088601f830112610dfb57600080fd5b813581811115610e0a57600080fd5b8960208260051b8501011115610e1f57600080fd5b60209283019750955050860135925060408601359150610e4160608701610d80565b90509295509295909350565b60005b83811015610e68578181015183820152602001610e50565b83811115610aa05750506000910152565b60008151808452610e91816020860160208601610e4d565b601f01601f19169290920160200192915050565b6000602080830181845280855180835260408601915060408160051b870101925083870160005b82811015610efa57603f19888603018452610ee8858351610e79565b94509285019290850190600101610ecc565b5092979650505050505050565b600060208284031215610f1957600080fd5b5035919050565b6020808252600f908201526e496e76616c6964206164647265737360881b604082015260600190565b634e487b7160e01b600052601160045260246000fd5b6000816000190483118215151615610f7957610f79610f49565b500290565b600082610f9b57634e487b7160e01b600052601260045260246000fd5b500490565b600082821015610fb257610fb2610f49565b500390565b600060208284031215610fc957600080fd5b81518015158114610c0f57600080fd5b81835281816020850137506000828201602090810191909152601f909101601f19169091010190565b60208082528181018390526000906040600585901b8401810190840186845b8781101561109057868403603f190183528135368a9003601e1901811261104757600080fd5b8901803567ffffffffffffffff81111561106057600080fd5b8036038b131561106f57600080fd5b61107c8682898501610fd9565b955050509184019190840190600101611021565b5091979650505050505050565b634e487b7160e01b600052604160045260246000fd5b604051601f8201601f1916810167ffffffffffffffff811182821017156110dc576110dc61109d565b604052919050565b600060208083850312156110f757600080fd5b825167ffffffffffffffff8082111561110f57600080fd5b8185019150601f868184011261112457600080fd5b8251828111156111365761113661109d565b8060051b6111458682016110b3565b918252848101860191868101908a84111561115f57600080fd5b87870192505b838310156111ec5782518681111561117d5760008081fd5b8701603f81018c1361118f5760008081fd5b888101516040888211156111a5576111a561109d565b6111b6828901601f19168c016110b3565b8281528e828486010111156111cb5760008081fd5b6111da838d8301848701610e4d565b85525050509187019190870190611165565b9a9950505050505050505050565b60006020828403121561120c57600080fd5b5051919050565b60008251611225818460208701610e4d565b9190910192915050565b602081526000610c0f6020830184610e7956fea26469706673582212202a90f141c58a46f8983ceca43726fddb8a815b6d8cffbee2ba0c57ac5d7a584464736f6c634300080d0033",
  "linkReferences": {},
  "deployedLinkReferences": {}
}