{
  "_format": "hh-sol-artifact-1",
  "contractName": "CustomRouter",
  "sourceName": "contracts/CustomRouter.sol",
  "abi": [
    {
      "inputs": [
        {
          "internalType": "address",
          "name": "_feeReceiver",
          "type": "address"
        }
      ],
      "stateMutability": "nonpayable",
      "type": "constructor"
    },
    {
      "anonymous": false,
      "inputs": [],
      "name": "Exchange",
      "type": "event"
    },
    {
      "anonymous": false,
      "inputs": [
        {
          "indexed": false,
          "internalType": "address",
          "name": "exchangeRouter",
          "type": "address"
        }
      ],
      "name": "ExchangeRouterUpdated",
      "type": "event"
    },
    {
      "anonymous": false,
      "inputs": [
        {
          "indexed": false,
          "internalType": "address",
          "name": "feeReceiver",
          "type": "address"
        }
      ],
      "name": "FeeReceiverUpdated",
      "type": "event"
    },
    {
      "anonymous": false,
      "inputs": [
        {
          "indexed": false,
          "internalType": "address",
          "name": "token",
          "type": "address"
        },
        {
          "indexed": false,
          "internalType": "uint256",
          "name": "amount",
          "type": "uint256"
        }
      ],
      "name": "FeeTokenWithdrawn",
      "type": "event"
    },
    {
      "anonymous": false,
      "inputs": [
        {
          "indexed": false,
          "internalType": "uint256",
          "name": "fee",
          "type": "uint256"
        }
      ],
      "name": "FeeUpdated",
      "type": "event"
    },
    {
      "anonymous": false,
      "inputs": [
        {
          "indexed": true,
          "internalType": "address",
          "name": "previousOwner",
          "type": "address"
        },
        {
          "indexed": true,
          "internalType": "address",
          "name": "newOwner",
          "type": "address"
        }
      ],
      "name": "OwnershipTransferred",
      "type": "event"
    },
    {
      "anonymous": false,
      "inputs": [
        {
          "indexed": false,
          "internalType": "uint256",
          "name": "rewardPercentage",
          "type": "uint256"
        }
      ],
      "name": "RewardPercentageUpdated",
      "type": "event"
    },
    {
      "anonymous": false,
      "inputs": [
        {
          "indexed": false,
          "internalType": "address",
          "name": "rewardToken",
          "type": "address"
        }
      ],
      "name": "RewardTokenUpdated",
      "type": "event"
    },
    {
      "anonymous": false,
      "inputs": [
        {
          "indexed": false,
          "internalType": "address",
          "name": "syntheticsRouter",
          "type": "address"
        }
      ],
      "name": "SyntheticsRouterUpdated",
      "type": "event"
    },
    {
      "stateMutability": "payable",
      "type": "fallback"
    },
    {
      "inputs": [],
      "name": "FEE_DOMINATOR",
      "outputs": [
        {
          "internalType": "uint256",
          "name": "",
          "type": "uint256"
        }
      ],
      "stateMutability": "view",
      "type": "function"
    },
    {
      "inputs": [],
      "name": "exchangeRouter",
      "outputs": [
        {
          "internalType": "contract ExchangeRouter",
          "name": "",
          "type": "address"
        }
      ],
      "stateMutability": "view",
      "type": "function"
    },
    {
      "inputs": [],
      "name": "fee",
      "outputs": [
        {
          "internalType": "uint256",
          "name": "",
          "type": "uint256"
        }
      ],
      "stateMutability": "view",
      "type": "function"
    },
    {
      "inputs": [],
      "name": "feeReceiver",
      "outputs": [
        {
          "internalType": "address",
          "name": "",
          "type": "address"
        }
      ],
      "stateMutability": "view",
      "type": "function"
    },
    {
      "inputs": [
        {
          "internalType": "bytes[]",
          "name": "data",
          "type": "bytes[]"
        },
        {
          "internalType": "uint256",
          "name": "amount",
          "type": "uint256"
        },
        {
          "internalType": "uint256",
          "name": "singularFee",
          "type": "uint256"
        },
        {
          "internalType": "address",
          "name": "fromToken",
          "type": "address"
        }
      ],
      "name": "multicall",
      "outputs": [
        {
          "internalType": "bytes[]",
          "name": "results",
          "type": "bytes[]"
        }
      ],
      "stateMutability": "payable",
      "type": "function"
    },
    {
      "inputs": [],
      "name": "owner",
      "outputs": [
        {
          "internalType": "address",
          "name": "",
          "type": "address"
        }
      ],
      "stateMutability": "view",
      "type": "function"
    },
    {
      "inputs": [],
      "name": "renounceOwnership",
      "outputs": [],
      "stateMutability": "nonpayable",
      "type": "function"
    },
    {
      "inputs": [],
      "name": "rewardPercentage",
      "outputs": [
        {
          "internalType": "uint256",
          "name": "",
          "type": "uint256"
        }
      ],
      "stateMutability": "view",
      "type": "function"
    },
    {
      "inputs": [],
      "name": "rewardToken",
      "outputs": [
        {
          "internalType": "contract IERC20",
          "name": "",
          "type": "address"
        }
      ],
      "stateMutability": "view",
      "type": "function"
    },
    {
      "inputs": [
        {
          "internalType": "address",
          "name": "_exchangeRouter",
          "type": "address"
        }
      ],
      "name": "setExchangeRouter",
      "outputs": [],
      "stateMutability": "nonpayable",
      "type": "function"
    },
    {
      "inputs": [
        {
          "internalType": "uint256",
          "name": "_fee",
          "type": "uint256"
        }
      ],
      "name": "setFee",
      "outputs": [],
      "stateMutability": "nonpayable",
      "type": "function"
    },
    {
      "inputs": [
        {
          "internalType": "address",
          "name": "_feeReceiver",
          "type": "address"
        }
      ],
      "name": "setFeeReceiver",
      "outputs": [],
      "stateMutability": "nonpayable",
      "type": "function"
    },
    {
      "inputs": [
        {
          "internalType": "uint256",
          "name": "_rewardPercentage",
          "type": "uint256"
        }
      ],
      "name": "setRewardPercentage",
      "outputs": [],
      "stateMutability": "nonpayable",
      "type": "function"
    },
    {
      "inputs": [
        {
          "internalType": "address",
          "name": "_rewardToken",
          "type": "address"
        }
      ],
      "name": "setRewardToken",
      "outputs": [],
      "stateMutability": "nonpayable",
      "type": "function"
    },
    {
      "inputs": [
        {
          "internalType": "address",
          "name": "_syntheticsRouter",
          "type": "address"
        }
      ],
      "name": "setSyntheticsRouter",
      "outputs": [],
      "stateMutability": "nonpayable",
      "type": "function"
    },
    {
      "inputs": [],
      "name": "syntheticsRouter",
      "outputs": [
        {
          "internalType": "address",
          "name": "",
          "type": "address"
        }
      ],
      "stateMutability": "view",
      "type": "function"
    },
    {
      "inputs": [
        {
          "internalType": "address",
          "name": "newOwner",
          "type": "address"
        }
      ],
      "name": "transferOwnership",
      "outputs": [],
      "stateMutability": "nonpayable",
      "type": "function"
    },
    {
      "inputs": [
        {
          "internalType": "address",
          "name": "_token",
          "type": "address"
        }
      ],
      "name": "withdraw",
      "outputs": [],
      "stateMutability": "nonpayable",
      "type": "function"
    },
    {
      "stateMutability": "payable",
      "type": "receive"
    }
  ],
  "bytecode": "0x60806040526101f4600455606460075534801561001b57600080fd5b506040516114e53803806114e583398101604081905261003a916100fd565b610043336100ad565b60018055600280546001600160a01b0319908116737c68c7866a64fa2160f78eeae12217ffbf871fa817909155600380548216737452c558d45f8afc8c83dae62c3f8a5be19c71f6179055600580546001600160a01b03939093169290911691909117905561012d565b600080546001600160a01b038381166001600160a01b0319831681178455604051919092169283917f8be0079c531659141344cd1fd0a4f28419497f9722a3daafe3b4186f6b6457e09190a35050565b60006020828403121561010f57600080fd5b81516001600160a01b038116811461012657600080fd5b9392505050565b6113a98061013c6000396000f3fe6080604052600436106101015760003560e01c80638aee81271161008f578063ddca3f4311610061578063ddca3f43146102b4578063efdcd974146102ca578063f2fde38b146102ea578063f7c618c11461030a578063fa41a1031461032a57005b80638aee8127146102405780638da5cb5b14610260578063b3f006741461027e578063cb121b6b1461029e57005b806351cff8d9116100d357806351cff8d9146101a757806352d472eb146101c757806369fe0e2d146101eb578063715018a61461020b578063838b7ccb1461022057005b8063096536741461010a5780631cb858181461012a578063283519af146101675780634aad316c1461018757005b3661010857005b005b34801561011657600080fd5b50610108610125366004610eda565b61034a565b34801561013657600080fd5b5060025461014a906001600160a01b031681565b6040516001600160a01b0390911681526020015b60405180910390f35b34801561017357600080fd5b50610108610182366004610f0f565b6103da565b61019a610195366004610f2a565b610430565b60405161015e9190611018565b3480156101b357600080fd5b506101086101c2366004610f0f565b610649565b3480156101d357600080fd5b506101dd60075481565b60405190815260200161015e565b3480156101f757600080fd5b50610108610206366004610eda565b6108e1565b34801561021757600080fd5b5061010861095e565b34801561022c57600080fd5b5061010861023b366004610f0f565b610972565b34801561024c57600080fd5b5061010861025b366004610f0f565b6109c8565b34801561026c57600080fd5b506000546001600160a01b031661014a565b34801561028a57600080fd5b5060055461014a906001600160a01b031681565b3480156102aa57600080fd5b506101dd61271081565b3480156102c057600080fd5b506101dd60045481565b3480156102d657600080fd5b506101086102e5366004610f0f565b610a1e565b3480156102f657600080fd5b50610108610305366004610f0f565b610abc565b34801561031657600080fd5b5060065461014a906001600160a01b031681565b34801561033657600080fd5b5060035461014a906001600160a01b031681565b610352610b35565b61271081111561039e5760405162461bcd60e51b8152602060048201526012602482015271496e76616c69642070657263656e7461676560701b60448201526064015b60405180910390fd5b60078190556040518181527fa517688a5cc06ffb7e2ebccbfe64825a30f815fe3d3f53d103f11726b4b48ce9906020015b60405180910390a150565b6103e2610b35565b600380546001600160a01b0319166001600160a01b0383169081179091556040519081527fb6f5ba79afe5be70f321dfc3bc2a3287e7269cf555a21885fe510519a6a4990a906020016103cf565b60606002600154036104845760405162461bcd60e51b815260206004820152601f60248201527f5265656e7472616e637947756172643a207265656e7472616e742063616c6c006044820152606401610395565b60026001556004546000906127109061049d9087611090565b6104a791906110af565b9050838111156104e75760405162461bcd60e51b815260206004820152600b60248201526a496e76616c69642066656560a81b6044820152606401610395565b6001600160a01b0383161561059c5761050b6001600160a01b038416333088610b8f565b6003546001600160a01b038085169163095ea7b3911661052b87896110d1565b6040516001600160e01b031960e085901b1681526001600160a01b03909216600483015260248201526044016020604051808303816000875af1158015610576573d6000803e3d6000fd5b505050506040513d601f19601f8201168201806040525081019061059a91906110e8565b505b60006001600160a01b038416156105b357346105bd565b6105bd85346110d1565b600254604051631592ca1b60e31b81529192506001600160a01b03169063ac9650d89083906105f2908c908c90600401611133565b60006040518083038185885af1158015610610573d6000803e3d6000fd5b50505050506040513d6000823e601f3d908101601f191682016040526106399190810190611215565b6001805598975050505050505050565b60026001540361069b5760405162461bcd60e51b815260206004820152601f60248201527f5265656e7472616e637947756172643a207265656e7472616e742063616c6c006044820152606401610395565b60026001556001600160a01b0381166107c95747806106e65760405162461bcd60e51b81526020600482015260076024820152664e6f204665657360c81b6044820152606401610395565b600080546040516001600160a01b039091169083908381818185875af1925050503d8060008114610733576040519150601f19603f3d011682016040523d82523d6000602084013e610738565b606091505b50509050806107805760405162461bcd60e51b815260206004820152601460248201527315da5d1a191c985dc81199594e8811985a5b195960621b6044820152606401610395565b604080516001600160a01b0385168152602081018490527f8f1a6d9f2910510bc19a3e533d976a8f3a858607f88468a5065f615f3669ffd1910160405180910390a150506108da565b6040516370a0823160e01b81523060048201526000906001600160a01b038316906370a0823190602401602060405180830381865afa158015610810573d6000803e3d6000fd5b505050506040513d601f19601f82011682018060405250810190610834919061132b565b9050600081116108705760405162461bcd60e51b81526020600482015260076024820152664e6f204665657360c81b6044820152606401610395565b6108966108856000546001600160a01b031690565b6001600160a01b0384169083610c00565b604080516001600160a01b0384168152602081018390527f8f1a6d9f2910510bc19a3e533d976a8f3a858607f88468a5065f615f3669ffd1910160405180910390a1505b5060018055565b6108e9610b35565b6127108111156109295760405162461bcd60e51b815260206004820152600b60248201526a496e76616c69642066656560a81b6044820152606401610395565b60048190556040518181527f8c4d35e54a3f2ef1134138fd8ea3daee6a3c89e10d2665996babdf70261e2c76906020016103cf565b610966610b35565b6109706000610c35565b565b61097a610b35565b600280546001600160a01b0319166001600160a01b0383169081179091556040519081527fb7c805b65952f3d706be4b8dada8a333c930c006bda2450216983a7229256631906020016103cf565b6109d0610b35565b600680546001600160a01b0319166001600160a01b0383169081179091556040519081527fa5289ba11778999f4dfb9415023783188d42bbb5db0612cbfbe55999069612a0906020016103cf565b610a26610b35565b6001600160a01b038116610a6e5760405162461bcd60e51b815260206004820152600f60248201526e496e76616c6964206164647265737360881b6044820152606401610395565b600580546001600160a01b0319166001600160a01b0383169081179091556040519081527f27aae5db36d94179909d019ae0b1ac7c16d96d953148f63c0f6a0a9c8ead79ee906020016103cf565b610ac4610b35565b6001600160a01b038116610b295760405162461bcd60e51b815260206004820152602660248201527f4f776e61626c653a206e6577206f776e657220697320746865207a65726f206160448201526564647265737360d01b6064820152608401610395565b610b3281610c35565b50565b6000546001600160a01b031633146109705760405162461bcd60e51b815260206004820181905260248201527f4f776e61626c653a2063616c6c6572206973206e6f7420746865206f776e65726044820152606401610395565b6040516001600160a01b0380851660248301528316604482015260648101829052610bfa9085906323b872dd60e01b906084015b60408051601f198184030181529190526020810180516001600160e01b03166001600160e01b031990931692909217909152610c85565b50505050565b6040516001600160a01b038316602482015260448101829052610c3090849063a9059cbb60e01b90606401610bc3565b505050565b600080546001600160a01b038381166001600160a01b0319831681178455604051919092169283917f8be0079c531659141344cd1fd0a4f28419497f9722a3daafe3b4186f6b6457e09190a35050565b6000610cda826040518060400160405280602081526020017f5361666545524332303a206c6f772d6c6576656c2063616c6c206661696c6564815250856001600160a01b0316610d579092919063ffffffff16565b805190915015610c305780806020019051810190610cf891906110e8565b610c305760405162461bcd60e51b815260206004820152602a60248201527f5361666545524332303a204552433230206f7065726174696f6e20646964206e6044820152691bdd081cdd58d8d9595960b21b6064820152608401610395565b6060610d668484600085610d70565b90505b9392505050565b606082471015610dd15760405162461bcd60e51b815260206004820152602660248201527f416464726573733a20696e73756666696369656e742062616c616e636520666f6044820152651c8818d85b1b60d21b6064820152608401610395565b6001600160a01b0385163b610e285760405162461bcd60e51b815260206004820152601d60248201527f416464726573733a2063616c6c20746f206e6f6e2d636f6e74726163740000006044820152606401610395565b600080866001600160a01b03168587604051610e449190611344565b60006040518083038185875af1925050503d8060008114610e81576040519150601f19603f3d011682016040523d82523d6000602084013e610e86565b606091505b5091509150610e96828286610ea1565b979650505050505050565b60608315610eb0575081610d69565b825115610ec05782518084602001fd5b8160405162461bcd60e51b81526004016103959190611360565b600060208284031215610eec57600080fd5b5035919050565b80356001600160a01b0381168114610f0a57600080fd5b919050565b600060208284031215610f2157600080fd5b610d6982610ef3565b600080600080600060808688031215610f4257600080fd5b853567ffffffffffffffff80821115610f5a57600080fd5b818801915088601f830112610f6e57600080fd5b813581811115610f7d57600080fd5b8960208260051b8501011115610f9257600080fd5b60209283019750955050860135925060408601359150610fb460608701610ef3565b90509295509295909350565b60005b83811015610fdb578181015183820152602001610fc3565b83811115610bfa5750506000910152565b60008151808452611004816020860160208601610fc0565b601f01601f19169290920160200192915050565b6000602080830181845280855180835260408601915060408160051b870101925083870160005b8281101561106d57603f1988860301845261105b858351610fec565b9450928501929085019060010161103f565b5092979650505050505050565b634e487b7160e01b600052601160045260246000fd5b60008160001904831182151516156110aa576110aa61107a565b500290565b6000826110cc57634e487b7160e01b600052601260045260246000fd5b500490565b6000828210156110e3576110e361107a565b500390565b6000602082840312156110fa57600080fd5b81518015158114610d6957600080fd5b81835281816020850137506000828201602090810191909152601f909101601f19169091010190565b60208082528181018390526000906040600585901b8401810190840186845b878110156111c157868403603f190183528135368a9003601e1901811261117857600080fd5b8901803567ffffffffffffffff81111561119157600080fd5b8036038b13156111a057600080fd5b6111ad868289850161110a565b955050509184019190840190600101611152565b5091979650505050505050565b634e487b7160e01b600052604160045260246000fd5b604051601f8201601f1916810167ffffffffffffffff8111828210171561120d5761120d6111ce565b604052919050565b6000602080838503121561122857600080fd5b825167ffffffffffffffff8082111561124057600080fd5b8185019150601f868184011261125557600080fd5b825182811115611267576112676111ce565b8060051b6112768682016111e4565b918252848101860191868101908a84111561129057600080fd5b87870192505b8383101561131d578251868111156112ae5760008081fd5b8701603f81018c136112c05760008081fd5b888101516040888211156112d6576112d66111ce565b6112e7828901601f19168c016111e4565b8281528e828486010111156112fc5760008081fd5b61130b838d8301848701610fc0565b85525050509187019190870190611296565b9a9950505050505050505050565b60006020828403121561133d57600080fd5b5051919050565b60008251611356818460208701610fc0565b9190910192915050565b602081526000610d696020830184610fec56fea2646970667358221220074cc3d29936d54b1499adf702399c9fa65a425a12094e82fa676506adbbb61464736f6c634300080d0033",
  "linkReferences": {},
  "deployedLinkReferences": {}
}